{
  "contractName": "LandRegistry",
  "abi": [
    {
      "anonymous": false,
      "inputs": [
        {
          "indexed": false,
          "internalType": "uint256",
          "name": "id",
          "type": "uint256"
        },
        {
          "indexed": false,
          "internalType": "address",
          "name": "owner",
          "type": "address"
        }
      ],
      "name": "LandRegistered",
      "type": "event"
    },
    {
      "anonymous": false,
      "inputs": [
        {
          "indexed": false,
          "internalType": "uint256",
          "name": "id",
          "type": "uint256"
        }
      ],
      "name": "LandVerified",
      "type": "event"
    },
    {
      "inputs": [
        {
          "internalType": "uint256",
          "name": "",
          "type": "uint256"
        }
      ],
      "name": "lands",
      "outputs": [
        {
          "internalType": "uint256",
          "name": "id",
          "type": "uint256"
        },
        {
          "internalType": "string",
          "name": "location",
          "type": "string"
        },
        {
          "internalType": "uint256",
          "name": "area",
          "type": "uint256"
        },
        {
          "internalType": "address",
          "name": "owner",
          "type": "address"
        },
        {
          "internalType": "bool",
          "name": "isVerified",
          "type": "bool"
        }
      ],
      "stateMutability": "view",
      "type": "function",
      "constant": true
    },
    {
      "inputs": [
        {
          "internalType": "uint256",
          "name": "_id",
          "type": "uint256"
        },
        {
          "internalType": "string",
          "name": "_location",
          "type": "string"
        },
        {
          "internalType": "uint256",
          "name": "_area",
          "type": "uint256"
        }
      ],
      "name": "registerLand",
      "outputs": [],
      "stateMutability": "nonpayable",
      "type": "function"
    },
    {
      "inputs": [
        {
          "internalType": "uint256",
          "name": "_id",
          "type": "uint256"
        }
      ],
      "name": "verifyLand",
      "outputs": [],
      "stateMutability": "nonpayable",
      "type": "function"
    },
    {
      "inputs": [
        {
          "internalType": "uint256",
          "name": "_id",
          "type": "uint256"
        }
      ],
      "name": "getLand",
      "outputs": [
        {
          "internalType": "string",
          "name": "",
          "type": "string"
        },
        {
          "internalType": "uint256",
          "name": "",
          "type": "uint256"
        },
        {
          "internalType": "address",
          "name": "",
          "type": "address"
        },
        {
          "internalType": "bool",
          "name": "",
          "type": "bool"
        }
      ],
      "stateMutability": "view",
      "type": "function",
      "constant": true
    }
  ],
  "bytecode": "0x608060405234801561000f575f80fd5b50610d988061001d5f395ff3fe608060405234801561000f575f80fd5b506004361061004a575f3560e01c806398f1c3401461004e578063e261f1e51461006a578063f02dd53f1461009e578063f9c43bdf146100d1575b5f80fd5b6100686004803603810190610063919061076e565b6100ed565b005b610084600480360381019061007f91906107da565b6102ab565b6040516100959594939291906108e7565b60405180910390f35b6100b860048036038101906100b391906107da565b61038e565b6040516100c8949392919061093f565b60405180910390f35b6100eb60048036038101906100e691906107da565b6104e8565b005b5f73ffffffffffffffffffffffffffffffffffffffff165f808581526020019081526020015f206003015f9054906101000a900473ffffffffffffffffffffffffffffffffffffffff1673ffffffffffffffffffffffffffffffffffffffff161461018d576040517f08c379a0000000000000000000000000000000000000000000000000000000008152600401610184906109d3565b60405180910390fd5b6040518060a001604052808481526020018381526020018281526020013373ffffffffffffffffffffffffffffffffffffffff1681526020015f15158152505f808581526020019081526020015f205f820151815f015560208201518160010190816101f99190610beb565b50604082015181600201556060820151816003015f6101000a81548173ffffffffffffffffffffffffffffffffffffffff021916908373ffffffffffffffffffffffffffffffffffffffff16021790555060808201518160030160146101000a81548160ff0219169083151502179055509050507fcb4990052f95f6057496d19524f6c3163f50af9f33f2c15b092928e03414323e833360405161029e929190610cba565b60405180910390a1505050565b5f602052805f5260405f205f91509050805f0154908060010180546102cf90610a1e565b80601f01602080910402602001604051908101604052809291908181526020018280546102fb90610a1e565b80156103465780601f1061031d57610100808354040283529160200191610346565b820191905f5260205f20905b81548152906001019060200180831161032957829003601f168201915b505050505090806002015490806003015f9054906101000a900473ffffffffffffffffffffffffffffffffffffffff16908060030160149054906101000a900460ff16905085565b60605f805f805f808781526020019081526020015f206040518060a00160405290815f82015481526020016001820180546103c890610a1e565b80601f01602080910402602001604051908101604052809291908181526020018280546103f490610a1e565b801561043f5780601f106104165761010080835404028352916020019161043f565b820191905f5260205f20905b81548152906001019060200180831161042257829003601f168201915b5050505050815260200160028201548152602001600382015f9054906101000a900473ffffffffffffffffffffffffffffffffffffffff1673ffffffffffffffffffffffffffffffffffffffff1673ffffffffffffffffffffffffffffffffffffffff1681526020016003820160149054906101000a900460ff161515151581525050905080602001518160400151826060015183608001519450945094509450509193509193565b5f73ffffffffffffffffffffffffffffffffffffffff165f808381526020019081526020015f206003015f9054906101000a900473ffffffffffffffffffffffffffffffffffffffff1673ffffffffffffffffffffffffffffffffffffffff1603610588576040517f08c379a000000000000000000000000000000000000000000000000000000000815260040161057f90610d2b565b60405180910390fd5b60015f808381526020019081526020015f2060030160146101000a81548160ff0219169083151502179055507f339a5d26292b459dbd1a911e53069f56bd3610e5ca60a312043fc90189c388bf816040516105e39190610d49565b60405180910390a150565b5f604051905090565b5f80fd5b5f80fd5b5f819050919050565b610611816105ff565b811461061b575f80fd5b50565b5f8135905061062c81610608565b92915050565b5f80fd5b5f80fd5b5f601f19601f8301169050919050565b7f4e487b71000000000000000000000000000000000000000000000000000000005f52604160045260245ffd5b6106808261063a565b810181811067ffffffffffffffff8211171561069f5761069e61064a565b5b80604052505050565b5f6106b16105ee565b90506106bd8282610677565b919050565b5f67ffffffffffffffff8211156106dc576106db61064a565b5b6106e58261063a565b9050602081019050919050565b828183375f83830152505050565b5f61071261070d846106c2565b6106a8565b90508281526020810184848401111561072e5761072d610636565b5b6107398482856106f2565b509392505050565b5f82601f83011261075557610754610632565b5b8135610765848260208601610700565b91505092915050565b5f805f60608486031215610785576107846105f7565b5b5f6107928682870161061e565b935050602084013567ffffffffffffffff8111156107b3576107b26105fb565b5b6107bf86828701610741565b92505060406107d08682870161061e565b9150509250925092565b5f602082840312156107ef576107ee6105f7565b5b5f6107fc8482850161061e565b91505092915050565b61080e816105ff565b82525050565b5f81519050919050565b5f82825260208201905092915050565b5f5b8381101561084b578082015181840152602081019050610830565b5f8484015250505050565b5f61086082610814565b61086a818561081e565b935061087a81856020860161082e565b6108838161063a565b840191505092915050565b5f73ffffffffffffffffffffffffffffffffffffffff82169050919050565b5f6108b78261088e565b9050919050565b6108c7816108ad565b82525050565b5f8115159050919050565b6108e1816108cd565b82525050565b5f60a0820190506108fa5f830188610805565b818103602083015261090c8187610856565b905061091b6040830186610805565b61092860608301856108be565b61093560808301846108d8565b9695505050505050565b5f6080820190508181035f8301526109578187610856565b90506109666020830186610805565b61097360408301856108be565b61098060608301846108d8565b95945050505050565b7f4c616e6420616c726561647920726567697374657265642e00000000000000005f82015250565b5f6109bd60188361081e565b91506109c882610989565b602082019050919050565b5f6020820190508181035f8301526109ea816109b1565b9050919050565b7f4e487b71000000000000000000000000000000000000000000000000000000005f52602260045260245ffd5b5f6002820490506001821680610a3557607f821691505b602082108103610a4857610a476109f1565b5b50919050565b5f819050815f5260205f209050919050565b5f6020601f8301049050919050565b5f82821b905092915050565b5f60088302610aaa7fffffffffffffffffffffffffffffffffffffffffffffffffffffffffffffffff82610a6f565b610ab48683610a6f565b95508019841693508086168417925050509392505050565b5f819050919050565b5f610aef610aea610ae5846105ff565b610acc565b6105ff565b9050919050565b5f819050919050565b610b0883610ad5565b610b1c610b1482610af6565b848454610a7b565b825550505050565b5f90565b610b30610b24565b610b3b818484610aff565b505050565b5b81811015610b5e57610b535f82610b28565b600181019050610b41565b5050565b601f821115610ba357610b7481610a4e565b610b7d84610a60565b81016020851015610b8c578190505b610ba0610b9885610a60565b830182610b40565b50505b505050565b5f82821c905092915050565b5f610bc35f1984600802610ba8565b1980831691505092915050565b5f610bdb8383610bb4565b9150826002028217905092915050565b610bf482610814565b67ffffffffffffffff811115610c0d57610c0c61064a565b5b610c178254610a1e565b610c22828285610b62565b5f60209050601f831160018114610c53575f8415610c41578287015190505b610c4b8582610bd0565b865550610cb2565b601f198416610c6186610a4e565b5f5b82811015610c8857848901518255600182019150602085019450602081019050610c63565b86831015610ca55784890151610ca1601f891682610bb4565b8355505b6001600288020188555050505b505050505050565b5f604082019050610ccd5f830185610805565b610cda60208301846108be565b9392505050565b7f4c616e64206e6f7420666f756e642e00000000000000000000000000000000005f82015250565b5f610d15600f8361081e565b9150610d2082610ce1565b602082019050919050565b5f6020820190508181035f830152610d4281610d09565b9050919050565b5f602082019050610d5c5f830184610805565b9291505056fea2646970667358221220d1791dcb48a28c9f63d6c64a3bd4fcc2ce4698ecec22f9a0e777f0908c0fac4464736f6c63430008140033",
  "immutableReferences": {},
  "source": "// SPDX-License-Identifier: MIT\r\npragma solidity ^0.8.20;\r\n\r\ncontract LandRegistry {\r\n    struct Land {\r\n        uint id;\r\n        string location;\r\n        uint area;\r\n        address owner;\r\n        bool isVerified;\r\n    }\r\n\r\n    mapping(uint => Land) public lands;\r\n\r\n    event LandRegistered(uint id, address owner);\r\n    event LandVerified(uint id);\r\n\r\n    function registerLand(uint _id, string memory _location, uint _area) public {\r\n        require(lands[_id].owner == address(0), \"Land already registered.\");\r\n        lands[_id] = Land(_id, _location, _area, msg.sender, false);\r\n        emit LandRegistered(_id, msg.sender);\r\n    }\r\n\r\n    function verifyLand(uint _id) public {\r\n        require(lands[_id].owner != address(0), \"Land not found.\");\r\n        lands[_id].isVerified = true;\r\n        emit LandVerified(_id);\r\n    }\r\n\r\n    function getLand(uint _id) public view returns (string memory, uint, address, bool) {\r\n        Land memory land = lands[_id];\r\n        return (land.location, land.area, land.owner, land.isVerified);\r\n    }\r\n}\r\n",
  "sourcePath": "C:\\Users\\tripa\\Land-Registration-System capstone project\\Smart_Contracts\\contracts\\LandRegistry.sol",
  "compiler": {
    "name": "solc",
    "version": "0.8.20+commit.a1b79de6.Emscripten.clang"
  },
  "schemaVersion": "3.4.16",
  "updatedAt": "2025-05-30T01:27:10.162Z",
  "networkType": "ethereum",
  "devdoc": {
    "kind": "dev",
    "methods": {},
    "version": 1
  },
  "userdoc": {
    "kind": "user",
    "methods": {},
    "version": 1
  }
}