{
  "contractName": "LandRegistry",
  "abi": [
    {
      "anonymous": false,
      "inputs": [
        {
          "indexed": false,
          "internalType": "uint256",
          "name": "id",
          "type": "uint256"
        },
        {
          "indexed": false,
          "internalType": "uint256",
          "name": "price",
          "type": "uint256"
        }
      ],
      "name": "LandMarkedForSale",
      "type": "event"
    },
    {
      "anonymous": false,
      "inputs": [
        {
          "indexed": false,
          "internalType": "uint256",
          "name": "id",
          "type": "uint256"
        },
        {
          "indexed": false,
          "internalType": "address",
          "name": "oldOwner",
          "type": "address"
        },
        {
          "indexed": false,
          "internalType": "address",
          "name": "newOwner",
          "type": "address"
        },
        {
          "indexed": false,
          "internalType": "uint256",
          "name": "price",
          "type": "uint256"
        }
      ],
      "name": "LandPurchased",
      "type": "event"
    },
    {
      "anonymous": false,
      "inputs": [
        {
          "indexed": false,
          "internalType": "uint256",
          "name": "id",
          "type": "uint256"
        },
        {
          "indexed": false,
          "internalType": "address",
          "name": "owner",
          "type": "address"
        }
      ],
      "name": "LandRegistered",
      "type": "event"
    },
    {
      "anonymous": false,
      "inputs": [
        {
          "indexed": false,
          "internalType": "uint256",
          "name": "id",
          "type": "uint256"
        }
      ],
      "name": "LandVerified",
      "type": "event"
    },
    {
      "inputs": [],
      "name": "landCount",
      "outputs": [
        {
          "internalType": "uint256",
          "name": "",
          "type": "uint256"
        }
      ],
      "stateMutability": "view",
      "type": "function",
      "constant": true
    },
    {
      "inputs": [
        {
          "internalType": "uint256",
          "name": "",
          "type": "uint256"
        }
      ],
      "name": "lands",
      "outputs": [
        {
          "internalType": "uint256",
          "name": "id",
          "type": "uint256"
        },
        {
          "internalType": "string",
          "name": "location",
          "type": "string"
        },
        {
          "internalType": "uint256",
          "name": "area",
          "type": "uint256"
        },
        {
          "internalType": "address",
          "name": "owner",
          "type": "address"
        },
        {
          "internalType": "bool",
          "name": "isVerified",
          "type": "bool"
        },
        {
          "internalType": "bool",
          "name": "isForSale",
          "type": "bool"
        },
        {
          "internalType": "uint256",
          "name": "price",
          "type": "uint256"
        }
      ],
      "stateMutability": "view",
      "type": "function",
      "constant": true
    },
    {
      "inputs": [
        {
          "internalType": "uint256",
          "name": "_id",
          "type": "uint256"
        },
        {
          "internalType": "string",
          "name": "_location",
          "type": "string"
        },
        {
          "internalType": "uint256",
          "name": "_area",
          "type": "uint256"
        }
      ],
      "name": "registerLand",
      "outputs": [],
      "stateMutability": "nonpayable",
      "type": "function"
    },
    {
      "inputs": [
        {
          "internalType": "uint256",
          "name": "_id",
          "type": "uint256"
        }
      ],
      "name": "verifyLand",
      "outputs": [],
      "stateMutability": "nonpayable",
      "type": "function"
    },
    {
      "inputs": [
        {
          "internalType": "uint256",
          "name": "_id",
          "type": "uint256"
        }
      ],
      "name": "getLand",
      "outputs": [
        {
          "internalType": "string",
          "name": "",
          "type": "string"
        },
        {
          "internalType": "uint256",
          "name": "",
          "type": "uint256"
        },
        {
          "internalType": "address",
          "name": "",
          "type": "address"
        },
        {
          "internalType": "bool",
          "name": "",
          "type": "bool"
        },
        {
          "internalType": "bool",
          "name": "",
          "type": "bool"
        },
        {
          "internalType": "uint256",
          "name": "",
          "type": "uint256"
        }
      ],
      "stateMutability": "view",
      "type": "function",
      "constant": true
    },
    {
      "inputs": [
        {
          "internalType": "uint256",
          "name": "_id",
          "type": "uint256"
        },
        {
          "internalType": "uint256",
          "name": "_price",
          "type": "uint256"
        }
      ],
      "name": "markForSale",
      "outputs": [],
      "stateMutability": "nonpayable",
      "type": "function"
    },
    {
      "inputs": [
        {
          "internalType": "uint256",
          "name": "_id",
          "type": "uint256"
        }
      ],
      "name": "buyLand",
      "outputs": [],
      "stateMutability": "payable",
      "type": "function",
      "payable": true
    },
    {
      "inputs": [],
      "name": "getAllLandIds",
      "outputs": [
        {
          "internalType": "uint256[]",
          "name": "",
          "type": "uint256[]"
        }
      ],
      "stateMutability": "view",
      "type": "function",
      "constant": true
    },
    {
      "inputs": [],
      "name": "getLandForSaleIds",
      "outputs": [
        {
          "internalType": "uint256[]",
          "name": "",
          "type": "uint256[]"
        }
      ],
      "stateMutability": "view",
      "type": "function",
      "constant": true
    }
  ],
  "bytecode": "0x608060405234801561000f575f80fd5b50611eee8061001d5f395ff3fe608060405260043610610085575f3560e01c8063d7bce65811610058578063d7bce6581461011f578063d7dee19214610149578063e261f1e514610173578063f02dd53f146101b5578063f9c43bdf146101f657610085565b80637597cf271461008957806398f1c340146100b3578063cdfb36cd146100db578063ced3955814610103575b5f80fd5b348015610094575f80fd5b5061009d61021e565b6040516100aa91906110cc565b60405180910390f35b3480156100be575f80fd5b506100d960048036038101906100d49190611263565b610347565b005b3480156100e6575f80fd5b5061010160048036038101906100fc91906112cf565b61061b565b005b61011d6004803603810190610118919061130d565b610808565b005b34801561012a575f80fd5b50610133610a58565b6040516101409190611347565b60405180910390f35b348015610154575f80fd5b5061015d610a5e565b60405161016a91906110cc565b60405180910390f35b34801561017e575f80fd5b506101996004803603810190610194919061130d565b610b78565b6040516101ac9796959493929190611433565b60405180910390f35b3480156101c0575f80fd5b506101db60048036038101906101d6919061130d565b610c74565b6040516101ed969594939291906114a7565b60405180910390f35b348015610201575f80fd5b5061021c6004803603810190610217919061130d565b610ea5565b005b60605f80600190505b6127108111610278575f808281526020019081526020015f2060030160159054906101000a900460ff16156102655781806102619061153a565b9250505b80806102709061153a565b915050610227565b505f8167ffffffffffffffff8111156102945761029361113f565b5b6040519080825280602002602001820160405280156102c25781602001602082028036833780820191505090505b5090505f80600190505b612710811161033d575f808281526020019081526020015f2060030160159054906101000a900460ff161561032a578083838151811061030f5761030e611581565b5b60200260200101818152505081806103269061153a565b9250505b80806103359061153a565b9150506102cc565b5081935050505090565b5f8311610389576040517f08c379a0000000000000000000000000000000000000000000000000000000008152600401610380906115f8565b60405180910390fd5b5f8251116103cc576040517f08c379a00000000000000000000000000000000000000000000000000000000081526004016103c390611660565b60405180910390fd5b5f811161040e576040517f08c379a0000000000000000000000000000000000000000000000000000000008152600401610405906116c8565b60405180910390fd5b5f73ffffffffffffffffffffffffffffffffffffffff165f808581526020019081526020015f206003015f9054906101000a900473ffffffffffffffffffffffffffffffffffffffff1673ffffffffffffffffffffffffffffffffffffffff16146104ae576040517f08c379a00000000000000000000000000000000000000000000000000000000081526004016104a590611730565b60405180910390fd5b6040518060e001604052808481526020018381526020018281526020013373ffffffffffffffffffffffffffffffffffffffff1681526020015f151581526020015f151581526020015f8152505f808581526020019081526020015f205f820151815f015560208201518160010190816105289190611948565b50604082015181600201556060820151816003015f6101000a81548173ffffffffffffffffffffffffffffffffffffffff021916908373ffffffffffffffffffffffffffffffffffffffff16021790555060808201518160030160146101000a81548160ff02191690831515021790555060a08201518160030160156101000a81548160ff02191690831515021790555060c0820151816004015590505060015f8154809291906105d89061153a565b91905055507fcb4990052f95f6057496d19524f6c3163f50af9f33f2c15b092928e03414323e833360405161060e929190611a17565b60405180910390a1505050565b5f805f8481526020019081526020015f2090503373ffffffffffffffffffffffffffffffffffffffff16816003015f9054906101000a900473ffffffffffffffffffffffffffffffffffffffff1673ffffffffffffffffffffffffffffffffffffffff16146106bf576040517f08c379a00000000000000000000000000000000000000000000000000000000081526004016106b690611a88565b60405180910390fd5b8060030160149054906101000a900460ff16610710576040517f08c379a000000000000000000000000000000000000000000000000000000000815260040161070790611af0565b60405180910390fd5b8060030160159054906101000a900460ff1615610762576040517f08c379a000000000000000000000000000000000000000000000000000000000815260040161075990611b58565b60405180910390fd5b5f82116107a4576040517f08c379a000000000000000000000000000000000000000000000000000000000815260040161079b90611bc0565b60405180910390fd5b60018160030160156101000a81548160ff0219169083151502179055508181600401819055507fa76d4e93e72dd2c462b55db9e61b242a4a12795c93b4c5975d65dba7527e97d383836040516107fb929190611bde565b60405180910390a1505050565b5f805f8381526020019081526020015f2090508060030160159054906101000a900460ff1661086c576040517f08c379a000000000000000000000000000000000000000000000000000000000815260040161086390611c4f565b60405180910390fd5b80600401543410156108b3576040517f08c379a00000000000000000000000000000000000000000000000000000000081526004016108aa90611cb7565b60405180910390fd5b806003015f9054906101000a900473ffffffffffffffffffffffffffffffffffffffff1673ffffffffffffffffffffffffffffffffffffffff163373ffffffffffffffffffffffffffffffffffffffff1603610944576040517f08c379a000000000000000000000000000000000000000000000000000000000815260040161093b90611d1f565b60405180910390fd5b5f816003015f9054906101000a900473ffffffffffffffffffffffffffffffffffffffff16905033826003015f6101000a81548173ffffffffffffffffffffffffffffffffffffffff021916908373ffffffffffffffffffffffffffffffffffffffff1602179055505f8260030160156101000a81548160ff0219169083151502179055505f82600401819055508073ffffffffffffffffffffffffffffffffffffffff166108fc3490811502906040515f60405180830381858888f19350505050158015610a15573d5f803e3d5ffd5b507f807451718126bb3ea1827b4f2dcd9babf574bca415f9f210235f670d7c6e203083823334604051610a4b9493929190611d3d565b60405180910390a1505050565b60015481565b60605f60015467ffffffffffffffff811115610a7d57610a7c61113f565b5b604051908082528060200260200182016040528015610aab5781602001602082028036833780820191505090505b5090505f80600190505b6127108111610b6f575f73ffffffffffffffffffffffffffffffffffffffff165f808381526020019081526020015f206003015f9054906101000a900473ffffffffffffffffffffffffffffffffffffffff1673ffffffffffffffffffffffffffffffffffffffff1614610b5c5780838381518110610b3757610b36611581565b5b6020026020010181815250508180610b4e9061153a565b925050600154820315610b6f575b8080610b679061153a565b915050610ab5565b50819250505090565b5f602052805f5260405f205f91509050805f015490806001018054610b9c9061177b565b80601f0160208091040260200160405190810160405280929190818152602001828054610bc89061177b565b8015610c135780601f10610bea57610100808354040283529160200191610c13565b820191905f5260205f20905b815481529060010190602001808311610bf657829003601f168201915b505050505090806002015490806003015f9054906101000a900473ffffffffffffffffffffffffffffffffffffffff16908060030160149054906101000a900460ff16908060030160159054906101000a900460ff16908060040154905087565b60605f805f805f8073ffffffffffffffffffffffffffffffffffffffff165f808981526020019081526020015f206003015f9054906101000a900473ffffffffffffffffffffffffffffffffffffffff1673ffffffffffffffffffffffffffffffffffffffff1603610d1b576040517f08c379a0000000000000000000000000000000000000000000000000000000008152600401610d1290611dca565b60405180910390fd5b5f805f8981526020019081526020015f206040518060e00160405290815f8201548152602001600182018054610d509061177b565b80601f0160208091040260200160405190810160405280929190818152602001828054610d7c9061177b565b8015610dc75780601f10610d9e57610100808354040283529160200191610dc7565b820191905f5260205f20905b815481529060010190602001808311610daa57829003601f168201915b5050505050815260200160028201548152602001600382015f9054906101000a900473ffffffffffffffffffffffffffffffffffffffff1673ffffffffffffffffffffffffffffffffffffffff1673ffffffffffffffffffffffffffffffffffffffff1681526020016003820160149054906101000a900460ff161515151581526020016003820160159054906101000a900460ff16151515158152602001600482015481525050905080602001518160400151826060015183608001518460a001518560c001519650965096509650965096505091939550919395565b5f73ffffffffffffffffffffffffffffffffffffffff165f808381526020019081526020015f206003015f9054906101000a900473ffffffffffffffffffffffffffffffffffffffff1673ffffffffffffffffffffffffffffffffffffffff1603610f45576040517f08c379a0000000000000000000000000000000000000000000000000000000008152600401610f3c90611e32565b60405180910390fd5b5f808281526020019081526020015f2060030160149054906101000a900460ff1615610fa6576040517f08c379a0000000000000000000000000000000000000000000000000000000008152600401610f9d90611e9a565b60405180910390fd5b60015f808381526020019081526020015f2060030160146101000a81548160ff0219169083151502179055507f339a5d26292b459dbd1a911e53069f56bd3610e5ca60a312043fc90189c388bf816040516110019190611347565b60405180910390a150565b5f81519050919050565b5f82825260208201905092915050565b5f819050602082019050919050565b5f819050919050565b61104781611035565b82525050565b5f611058838361103e565b60208301905092915050565b5f602082019050919050565b5f61107a8261100c565b6110848185611016565b935061108f83611026565b805f5b838110156110bf5781516110a6888261104d565b97506110b183611064565b925050600181019050611092565b5085935050505092915050565b5f6020820190508181035f8301526110e48184611070565b905092915050565b5f604051905090565b5f80fd5b5f80fd5b61110681611035565b8114611110575f80fd5b50565b5f81359050611121816110fd565b92915050565b5f80fd5b5f80fd5b5f601f19601f8301169050919050565b7f4e487b71000000000000000000000000000000000000000000000000000000005f52604160045260245ffd5b6111758261112f565b810181811067ffffffffffffffff821117156111945761119361113f565b5b80604052505050565b5f6111a66110ec565b90506111b2828261116c565b919050565b5f67ffffffffffffffff8211156111d1576111d061113f565b5b6111da8261112f565b9050602081019050919050565b828183375f83830152505050565b5f611207611202846111b7565b61119d565b9050828152602081018484840111156112235761122261112b565b5b61122e8482856111e7565b509392505050565b5f82601f83011261124a57611249611127565b5b813561125a8482602086016111f5565b91505092915050565b5f805f6060848603121561127a576112796110f5565b5b5f61128786828701611113565b935050602084013567ffffffffffffffff8111156112a8576112a76110f9565b5b6112b486828701611236565b92505060406112c586828701611113565b9150509250925092565b5f80604083850312156112e5576112e46110f5565b5b5f6112f285828601611113565b925050602061130385828601611113565b9150509250929050565b5f60208284031215611322576113216110f5565b5b5f61132f84828501611113565b91505092915050565b61134181611035565b82525050565b5f60208201905061135a5f830184611338565b92915050565b5f81519050919050565b5f82825260208201905092915050565b5f5b8381101561139757808201518184015260208101905061137c565b5f8484015250505050565b5f6113ac82611360565b6113b6818561136a565b93506113c681856020860161137a565b6113cf8161112f565b840191505092915050565b5f73ffffffffffffffffffffffffffffffffffffffff82169050919050565b5f611403826113da565b9050919050565b611413816113f9565b82525050565b5f8115159050919050565b61142d81611419565b82525050565b5f60e0820190506114465f83018a611338565b818103602083015261145881896113a2565b90506114676040830188611338565b611474606083018761140a565b6114816080830186611424565b61148e60a0830185611424565b61149b60c0830184611338565b98975050505050505050565b5f60c0820190508181035f8301526114bf81896113a2565b90506114ce6020830188611338565b6114db604083018761140a565b6114e86060830186611424565b6114f56080830185611424565b61150260a0830184611338565b979650505050505050565b7f4e487b71000000000000000000000000000000000000000000000000000000005f52601160045260245ffd5b5f61154482611035565b91507fffffffffffffffffffffffffffffffffffffffffffffffffffffffffffffffff82036115765761157561150d565b5b600182019050919050565b7f4e487b71000000000000000000000000000000000000000000000000000000005f52603260045260245ffd5b7f4944206d757374206265203e20300000000000000000000000000000000000005f82015250565b5f6115e2600e8361136a565b91506115ed826115ae565b602082019050919050565b5f6020820190508181035f83015261160f816115d6565b9050919050565b7f4c6f636174696f6e2072657175697265640000000000000000000000000000005f82015250565b5f61164a60118361136a565b915061165582611616565b602082019050919050565b5f6020820190508181035f8301526116778161163e565b9050919050565b7f41726561206d757374206265203e2030000000000000000000000000000000005f82015250565b5f6116b260108361136a565b91506116bd8261167e565b602082019050919050565b5f6020820190508181035f8301526116df816116a6565b9050919050565b7f4c616e6420616c726561647920726567697374657265642e00000000000000005f82015250565b5f61171a60188361136a565b9150611725826116e6565b602082019050919050565b5f6020820190508181035f8301526117478161170e565b9050919050565b7f4e487b71000000000000000000000000000000000000000000000000000000005f52602260045260245ffd5b5f600282049050600182168061179257607f821691505b6020821081036117a5576117a461174e565b5b50919050565b5f819050815f5260205f209050919050565b5f6020601f8301049050919050565b5f82821b905092915050565b5f600883026118077fffffffffffffffffffffffffffffffffffffffffffffffffffffffffffffffff826117cc565b61181186836117cc565b95508019841693508086168417925050509392505050565b5f819050919050565b5f61184c61184761184284611035565b611829565b611035565b9050919050565b5f819050919050565b61186583611832565b61187961187182611853565b8484546117d8565b825550505050565b5f90565b61188d611881565b61189881848461185c565b505050565b5b818110156118bb576118b05f82611885565b60018101905061189e565b5050565b601f821115611900576118d1816117ab565b6118da846117bd565b810160208510156118e9578190505b6118fd6118f5856117bd565b83018261189d565b50505b505050565b5f82821c905092915050565b5f6119205f1984600802611905565b1980831691505092915050565b5f6119388383611911565b9150826002028217905092915050565b61195182611360565b67ffffffffffffffff81111561196a5761196961113f565b5b611974825461177b565b61197f8282856118bf565b5f60209050601f8311600181146119b0575f841561199e578287015190505b6119a8858261192d565b865550611a0f565b601f1984166119be866117ab565b5f5b828110156119e5578489015182556001820191506020850194506020810190506119c0565b86831015611a0257848901516119fe601f891682611911565b8355505b6001600288020188555050505b505050505050565b5f604082019050611a2a5f830185611338565b611a37602083018461140a565b9392505050565b7f4f6e6c79206f776e65722063616e2073656c6c2e0000000000000000000000005f82015250565b5f611a7260148361136a565b9150611a7d82611a3e565b602082019050919050565b5f6020820190508181035f830152611a9f81611a66565b9050919050565b7f4e6f742076657269666965642e000000000000000000000000000000000000005f82015250565b5f611ada600d8361136a565b9150611ae582611aa6565b602082019050919050565b5f6020820190508181035f830152611b0781611ace565b9050919050565b7f416c726561647920666f722073616c652e0000000000000000000000000000005f82015250565b5f611b4260118361136a565b9150611b4d82611b0e565b602082019050919050565b5f6020820190508181035f830152611b6f81611b36565b9050919050565b7f5072696365206d757374206265203e20300000000000000000000000000000005f82015250565b5f611baa60118361136a565b9150611bb582611b76565b602082019050919050565b5f6020820190508181035f830152611bd781611b9e565b9050919050565b5f604082019050611bf15f830185611338565b611bfe6020830184611338565b9392505050565b7f4e6f7420666f722073616c652e000000000000000000000000000000000000005f82015250565b5f611c39600d8361136a565b9150611c4482611c05565b602082019050919050565b5f6020820190508181035f830152611c6681611c2d565b9050919050565b7f496e73756666696369656e74207061796d656e742e00000000000000000000005f82015250565b5f611ca160158361136a565b9150611cac82611c6d565b602082019050919050565b5f6020820190508181035f830152611cce81611c95565b9050919050565b7f4f776e65722063616e6e6f74206275792e0000000000000000000000000000005f82015250565b5f611d0960118361136a565b9150611d1482611cd5565b602082019050919050565b5f6020820190508181035f830152611d3681611cfd565b9050919050565b5f608082019050611d505f830187611338565b611d5d602083018661140a565b611d6a604083018561140a565b611d776060830184611338565b95945050505050565b7f4c616e6420646f6573206e6f742065786973742e0000000000000000000000005f82015250565b5f611db460148361136a565b9150611dbf82611d80565b602082019050919050565b5f6020820190508181035f830152611de181611da8565b9050919050565b7f4c616e64206e6f7420666f756e642e00000000000000000000000000000000005f82015250565b5f611e1c600f8361136a565b9150611e2782611de8565b602082019050919050565b5f6020820190508181035f830152611e4981611e10565b9050919050565b7f416c72656164792076657269666965642e0000000000000000000000000000005f82015250565b5f611e8460118361136a565b9150611e8f82611e50565b602082019050919050565b5f6020820190508181035f830152611eb181611e78565b905091905056fea264697066735822122008493b53ee72aeff65073e4be1362b3d446ee4c95802a0797fd7fddc3e4a689264736f6c63430008140033",
  "immutableReferences": {},
  "source": "// SPDX-License-Identifier: MIT\r\npragma solidity ^0.8.20;\r\n\r\ncontract LandRegistry {\r\n    struct Land {\r\n        uint id;\r\n        string location;\r\n        uint area;\r\n        address owner;\r\n        bool isVerified;\r\n        bool isForSale;\r\n        uint price;\r\n    }\r\n\r\n    mapping(uint => Land) public lands;\r\n    uint public landCount;\r\n\r\n    event LandRegistered(uint id, address owner);\r\n    event LandVerified(uint id);\r\n    event LandMarkedForSale(uint id, uint price);\r\n    event LandPurchased(uint id, address oldOwner, address newOwner, uint price);\r\n\r\n    /// @notice Register new land (admin only)\r\n    function registerLand(uint _id, string memory _location, uint _area) public {\r\n        require(_id > 0, \"ID must be > 0\");\r\n        require(bytes(_location).length > 0, \"Location required\");\r\n        require(_area > 0, \"Area must be > 0\");\r\n        require(lands[_id].owner == address(0), \"Land already registered.\");\r\n\r\n        lands[_id] = Land({\r\n            id: _id,\r\n            location: _location,\r\n            area: _area,\r\n            owner: msg.sender,\r\n            isVerified: false,\r\n            isForSale: false,\r\n            price: 0\r\n        });\r\n\r\n        landCount++;\r\n        emit LandRegistered(_id, msg.sender);\r\n    }\r\n\r\n    /// @notice Verify a land (admin only)\r\n    function verifyLand(uint _id) public {\r\n        require(lands[_id].owner != address(0), \"Land not found.\");\r\n        require(!lands[_id].isVerified, \"Already verified.\");\r\n\r\n        lands[_id].isVerified = true;\r\n        emit LandVerified(_id);\r\n    }\r\n\r\n    /// @notice Get details of a specific land\r\n    function getLand(uint _id) public view returns (\r\n        string memory, uint, address, bool, bool, uint\r\n    ) {\r\n        require(lands[_id].owner != address(0), \"Land does not exist.\");\r\n        Land memory land = lands[_id];\r\n        return (\r\n            land.location,\r\n            land.area,\r\n            land.owner,\r\n            land.isVerified,\r\n            land.isForSale,\r\n            land.price\r\n        );\r\n    }\r\n\r\n    /// @notice Mark a verified land for sale (only owner)\r\n    function markForSale(uint _id, uint _price) public {\r\n        Land storage land = lands[_id];\r\n        require(land.owner == msg.sender, \"Only owner can sell.\");\r\n        require(land.isVerified, \"Not verified.\");\r\n        require(!land.isForSale, \"Already for sale.\");\r\n        require(_price > 0, \"Price must be > 0\");\r\n\r\n        land.isForSale = true;\r\n        land.price = _price;\r\n\r\n        emit LandMarkedForSale(_id, _price);\r\n    }\r\n\r\n    /// @notice Buy land listed for sale\r\n    function buyLand(uint _id) public payable {\r\n        Land storage land = lands[_id];\r\n        require(land.isForSale, \"Not for sale.\");\r\n        require(msg.value >= land.price, \"Insufficient payment.\");\r\n        require(msg.sender != land.owner, \"Owner cannot buy.\");\r\n\r\n        address previousOwner = land.owner;\r\n\r\n        // Update ownership\r\n        land.owner = msg.sender;\r\n        land.isForSale = false;\r\n        land.price = 0;\r\n\r\n        // Pay previous owner\r\n        payable(previousOwner).transfer(msg.value);\r\n\r\n        emit LandPurchased(_id, previousOwner, msg.sender, msg.value);\r\n    }\r\n\r\n    /// @notice Get all registered land IDs\r\n    function getAllLandIds() public view returns (uint[] memory) {\r\n        uint[] memory ids = new uint[](landCount);\r\n        uint counter = 0;\r\n\r\n        for (uint i = 1; i <= 10000; i++) {\r\n            if (lands[i].owner != address(0)) {\r\n                ids[counter] = i;\r\n                counter++;\r\n                if (counter == landCount) break;\r\n            }\r\n        }\r\n        return ids;\r\n    }\r\n\r\n    /// @notice Get IDs of lands for sale\r\n    function getLandForSaleIds() public view returns (uint[] memory) {\r\n        uint count = 0;\r\n\r\n        for (uint i = 1; i <= 10000; i++) {\r\n            if (lands[i].isForSale) count++;\r\n        }\r\n\r\n        uint[] memory ids = new uint[](count);\r\n        uint index = 0;\r\n\r\n        for (uint i = 1; i <= 10000; i++) {\r\n            if (lands[i].isForSale) {\r\n                ids[index] = i;\r\n                index++;\r\n            }\r\n        }\r\n\r\n        return ids;\r\n    }\r\n}\r\n",
  "sourcePath": "C:\\Users\\tripa\\Land-Registration-System capstone project\\Smart_Contracts\\contracts\\LandRegistry.sol",
  "compiler": {
    "name": "solc",
    "version": "0.8.20+commit.a1b79de6.Emscripten.clang"
  },
  "schemaVersion": "3.4.16",
  "updatedAt": "2025-07-11T11:28:23.716Z",
  "networkType": "ethereum",
  "devdoc": {
    "kind": "dev",
    "methods": {},
    "version": 1
  },
  "userdoc": {
    "kind": "user",
    "methods": {
      "buyLand(uint256)": {
        "notice": "Buy land listed for sale"
      },
      "getAllLandIds()": {
        "notice": "Get all registered land IDs"
      },
      "getLand(uint256)": {
        "notice": "Get details of a specific land"
      },
      "getLandForSaleIds()": {
        "notice": "Get IDs of lands for sale"
      },
      "markForSale(uint256,uint256)": {
        "notice": "Mark a verified land for sale (only owner)"
      },
      "registerLand(uint256,string,uint256)": {
        "notice": "Register new land (admin only)"
      },
      "verifyLand(uint256)": {
        "notice": "Verify a land (admin only)"
      }
    },
    "version": 1
  }
}